:100000006F00D00200000000360100003A0100003D
:1000100000000000000000000000000000000000E0
:1000200000000000000000000000000000000000D0
:10003000FA07000000000000FC07000000000000BC
:10004000FE0700000008000002080000040800008D
:1000500006080000080800000A0800000C0800005C
:100060000E0800001008000012080000140800002C
:1000700016080000180800001A0800001C080000FC
:100080001E080000200800002208000024080000CC
:1000900026080000280800002A08000000000000D0
:1000A0002A86014593F6150091C232958581060690
:1000B000F5F9828000000000634E050263C3050469
:1000C0002E86AA857D5515C285466378B60063568F
:1000D000C00006068606E36CB6FE014563E4C50073
:1000E000918D558D85820582F5FA82808682C93F81
:1000F0002E8582823305A0406347B000B305B0402F
:10010000C1B7B305B0408682653F3305A040828207
:10011000868263C70500634905005D372E858282AC
:10012000B305B040E35B05FE3305A040513F330506
:10013000B040828200007300203001A0B717024057
:100140009843B706FFFC1367170098C3D843758F11
:10015000D8C39843B706F7FEFD16758F98C398432A
:10016000B706FCFFFD16758F98C3D44341777D1702
:10017000F98ED4C3B7069F0094C7B72602409042B9
:10018000719A90C290421366160090C2D443D4C3B1
:10019000D443758FD8C3D843B7060001D8C398435A
:1001A000558F98C3B70600029843758F75DFD84303
:1001B000B7160240719BD8C3D84313672700D8C332
:1001C0002147DC42B18BE39EE7FE82803717024075
:1001D0005C43A146B18B6395D7045C433775DC0261
:1001E000130505C0B7160240D842B7070020938711
:1001F000070011833D8BBA9783C70700D84293F558
:10020000F70F13770708B357F50005E3511106C43C
:10021000453DA240370700202328A70031018280F6
:1002200037356E011305056075BF37070020232899
:10023000F7008280411122C43744014026C206C61D
:100240002AC093040480930500082685E92C65DD07
:100250001305048022448245B240924441017DACA2
:10026000511122C206C42A840305040009E5A240F4
:100270001244310182801375F50F0504653FEDB717
:10028000111106CC22CA26C8AE84D93F1305D0036B
:100290005537014481EC13050003693F5244E240A5
:1002A000C24405651305058B71015DBFA287580027
:1002B000B107BA97A94526853EC00D3D8247130573
:1002C0000503A945238AA7FE268526C0D53B82477C
:1002D000050425471374F40FAA84E369F7FC5DDC79
:1002E0007D141374F40F9307C4005800BA9703C524
:1002F00047FF8937EDB7211185451305100206CA5E
:1003000002C002C202C46D2C3705300085451305BA
:1003100005406D2637150140894741478A851305F9
:1003200005402310F1003AC43EC2552CD240610171
:100330008280130181FD054506D222D026CED12828
:1003400071351529116585451305050202C002C2E4
:1003500002C402C602C802CA02CC9D24930700024E
:100360002310F100371501408D473EC28A85E147D1
:10037000130505403EC4A524F16737440140938727
:100380000720130504803EC66C00B70708003ECA6C
:1003900002C8231C010059208545130504809D22B5
:1003A00005651305458B6D3D05651305058B4D3DB5
:1003B000B707002083A5070105651305458DC935DD
:1003C000A120AA8505651305058E5D3D814425376D
:1003D00001441305401FF12E0DE405460544371571
:1003E0000140894513050540E92485678504A685F4
:1003F0001385878E71350565A2851305058F4935EF
:10040000C9BF01460144E1BFB7F7FF1F03D5477CD1
:100410008280B707002023ACA702828083560501A3
:10042000F577FD17FD8E83D765001301C1FD22CE40
:1004300026CC06D0D58F03D7C5002318F5008356E8
:10044000C500FD779387379FFD8E83D745002A84AB
:10045000AE84D58F83D68500D58F83D6A500D58F62
:100460002316F50083574501C207C18393F7F7CFE1
:10047000D98F231AF50048006D28B74701409387AC
:1004800007806315F406C247139517000357C4008D
:100490003E950E053E9593170701C1878C4063D9A1
:1004A000070486053139930540062AC01139824771
:1004B00093144500930540063E850D398357C400CB
:1004C000C207C18763D807020E05930540061305CE
:1004D0002503FD361D89C98CC204C18023149400F4
:1004E00082507244E244130141028280B24769BFE4
:1004F0008A054DBF12059305400613052503C9362D
:100500003D89D1BF8357C50091C50967D98F23168F
:10051000F500828079777D17F98FD5BF93F5F51FA8
:100520002312B5008280035505006D8D3335A00080
:100530008280371702405C43511122C206C4B18B3E
:10054000A1462A846399D7065C43B777DC02938778
:1005500007C01CC03716024054423707002013075B
:1005600087029182BD8A36970345070058429375EA
:10057000F50F1377070833D5A70019E33E858936B1
:1005800048C008C448C4B7170240DC438D46AD8359
:1005900013F7F701CD8B63F3F6005117B70700206F
:1005A00093874701BA9783C50700193EA24008C840
:1005B000124431018280B7376E019387076051BFC3
:1005C00099C5371702401C4FC98F1CCF8280B717BF
:1005D0000240984F1345F5FF798D88CF828098456A
:1005E000611122C226C0937707011376F70099C3E1
:1005F000DC415D8E83D2050093F7F20FA9C7032378
:10060000050081478544BD4313048004B396F4007C
:10061000B3F5D2006393B602930580026313B70863
:1006200054C993952700B396B30093C6F6FFB3F66B
:100630006600B315B60033E3D5008507A146E397FE
:10064000D7FC232065009307F00F63F857040323BA
:1006500045008146854313048002930480049387F8
:100660008600B397F300B3F5F2006392B702631EFE
:1006700087025CC993952600BD47B397B70093C71F
:10068000F7FFB3F76700B315B60033E3F50085064F
:10069000A147E396F6FC232265001244824421011F
:1006A0008280E31087F814C9ADBFE31597FC1CC91D
:1006B000D1B719C20CC982804CC98280370301406E
:1006C000B707001083264300E98F99CFB707C0FF13
:1006D000F517F58F37070007D98F85C5370700F065
:1006E0007D17698FD98F31A863510502B707E0FFE5
:1006F000ED17F58F37070007D98F81C506050581EE
:10070000C98F370701405CC38280B70730001317D9
:1007100005013376F50041836312F602370600F9CE
:100720007D16B3F7C60083264300F18E2322D30043
:10073000E9D9558112053315A700D9B7B7071000BD
:10074000E98F91CF135605013D8A8D47B397C700B6
:1007500093C7F7FFF58FB7060007D58FD1BF558137
:1007600012053317A7009347F7FFF58FB706000769
:10077000D58FC1D985BFB707002003A50701B715DD
:100780007A0051119385052006C41D3A1375F50FA3
:10079000B7070020238FA70293175500898F8A0778
:1007A000A2403E950E05B7070020239EA702310107
:1007B0008280511122C237F400E05C4006C4AA8551
:1007C000F99B5CC0B707002003D5C703EFF05F8D2E
:1007D00008C8232404001C4093E717021CC0B7F785
:1007E00000E0D843058B75DF9843A2401244799B03
:1007F00098C33101828001A001A001A001A001A045
:1008000001A001A001A001A001A001A001A001A0E0
:1008100001A001A001A001A001A001A001A001A0D0
:1008200001A001A001A001A001A001A0970100204A
:100830009381C100138181FC170500001305C50BCE
:1008400097F5FF1F9385057C17F6FF1F1306067F9C
:1008500063FAC5008322050023A055001105910508
:10086000E3EAC5FE17F5FF1F1305457D93858180DB
:100870006377B500232005001105E36DB5FE9302F3
:100880000008739002308D427390428097F2FFFF10
:100890009382427793E2320073905230EFF01F8AD6
:1008A00097020000938222A97390123473002030C3
:1008B0000D0A000043483332563030332055415240
:1008C000542075706C6F6164206578616D706C6523
:1008D0000000000053797374656D436C6B00000079
:1008E0004368697049440000636F756E74000000CE
:0408F00070643100FF
:1008F40001020304050607080102030405060708AC
:10090400006CDC020204060804080C10081018200D
:1009140010203040204060800102030405060708CF
:080924000102030405060708A7
:00000001FF
