:100000006F002052000000002003000024030000C5
:1000100000000000000000000000000000000000E0
:1000200000000000000000000000000000000000D0
:10003000F004000000000000F204000000000000D6
:10004000F4040000F6040000F8040000FA040000C4
:10005000FC040000FE040000000500000205000092
:100060000405000006050000080500000A05000060
:100070000C0500000E050000100500001205000030
:100080001405000016050000180500001A05000000
:100090001C0500001E0500002005000000000000F7
:1000A000397101436EC619A0397141536AC866CAD5
:1000B00062CC5ECE19A0397101535AD056D252D4B7
:1000C0004ED64AD826DA22DC06DE3301614082822F
:1000D00041114AC026C222C406C68282B24D4101E5
:1000E000024D924C224CB24B4101024B924A224AA1
:1000F000B2494101024992442244B2404101828006
:100100003D432A876373C3029377F700BDEFADE5E4
:10011000937606FF3D8ABA960CC34CC30CC74CC7F6
:100120004107E36BD7FE11E28280B306C3408A0623
:100130009702000096966780A6002307B700A306E3
:10014000B7002306B700A305B7002305B700A30433
:10015000B7002304B700A303B7002303B700A3022B
:10016000B7002302B700A301B7002301B700A30023
:10017000B7002300B700828093F5F50F93968500B2
:10018000D58D93960501D58D61B79396270097027B
:10019000000096968682E78086FA9680C1171D8FAA
:1001A0003E96E374C3F8A5B7B71702409843B70665
:1001B000FFFC1367170098C3D843758FD8C39843C3
:1001C000B706F7FEFD16758F98C39843B706FCFF78
:1001D000FD16758F98C3D44341777D17F98ED4C32C
:1001E000B7069F0094C7B72602409042719A90C20A
:1001F00090421366160090C2D443D4C3D443758F83
:10020000D8C3D843B7060001D8C39843558F98C3C5
:10021000984393166700E3DD06FED843B716024005
:10022000719BD8C3D84313672700D8C32147DC424A
:10023000B18BE39EE7FE8280B7160240D842B70733
:1002400000201146318B938707016305C7002146C3
:100250006301C70437376E011307076098C3371669
:10026000024058428C4311839376F70037070020F1
:100270001307070036970347070054421377F70F19
:1002800093F6060833D6E50099E233D6E50290C32B
:100290008280D8423777DC02130707C0C1B7EFF27C
:1002A0003FE3411185451305000202C202C402C6A4
:1002B0001D2A85472312F10037150140C1473EC66C
:1002C0004C008947130505403EC4992A41011DB5DC
:1002D000EFF21FE005453D228537B120B70700202A
:1002E00083A50701371500001305C57D4D2CFD20A2
:1002F000AA85371500001305C57E55243715000063
:100300001305C57F652E37140140513F1304044087
:100310001305A00F3528014685452285D922CDBF7A
:100320007300203001A0B707002083A7070137170B
:100330007A0013070720B3D7E70293F7F70F238953
:10034000F1801307803EB387E7022398F180828013
:10035000B7F700E0D843799BD8C303D701813305B1
:10036000A70288CB23A4070098431367170298C3FA
:10037000D843058B75DF9843799B98C38280EFF251
:100380009FD3B7440140AE893289014493840480ED
:10039000634424014A8591BB9305000426859D286A
:1003A00065DDB38789008385070026850504C205BE
:1003B000C181A128F1BF37070020130747011C4363
:1003C0009386C1813E956369D500938681D863E5A4
:1003D000A60008C33E858280FD57EDBFB7F7FF1F1B
:1003E00003D5477C828099C5371702401C4F5D8D2D
:1003F00008CF8280B7170240984F1345F5FF798DDB
:1004000088CF828023AAA180828093F5F51F2312D2
:10041000B5008280035505006D8D3335A0008280C4
:100420009C4513F7070113F8F70001C7D84133685B
:10043000E80083D5050013F7F50F39C3184181464D
:10044000854E3D4F930F800293028004214E3396D8
:10045000DE00B3F8C500631116039398260033132A
:100460001F011343F3FF3377E300B318180133E799
:10047000E800639FF70550C98506E39AC6FD18C1D9
:100480001307F00F6375B70454412146854E3D4F65
:10049000930F800293028004414EB398CE0033F74D
:1004A00015016392E8021317260001173313EF00BA
:1004B0001343F3FFB376D3003317E800D98E639D5F
:1004C000F701232A15010506E319C6FD54C18280F0
:1004D000E39457FA10C94DB7E39757FE2328150147
:1004E000DDB719C20CC982804CC9828001A001A06D
:1004F00001A001A001A001A001A001A001A001A0F4
:1005000001A001A001A001A001A001A001A001A0E3
:1005100001A001A001A001A001A001A001A001A0D3
:1005200001A09701002093816135138181F817158F
:1005300000001305E537970500209385A5AC1386C9
:10054000818063FAC5008322050023A055001105B0
:100550009105E3EAC5FE138581809385C1816377A8
:10056000B500232005001105E36DB5FE93020008D8
:10057000739002308D427390428097020000938204
:1005800062A893E2320073905230EFF0FFC19702FD
:100590000000938222D4739012347300203039719A
:1005A0003EDA2ED232D436D63AD842DC46DE97072F
:1005B00000209387A7AC22CC804326CA06CEAA840B
:1005C00009C41C4C99E3228535230C44541026861B
:1005D000228536C6EF00F017F2406244D244216112
:1005E0008280011126CA4AC806CE22CC4EC652C409
:1005F000AA842E8901C51C4D91E3ED299C4C8044B1
:1006000099E32685C529971700009387A722631CC5
:10061000F402C0408357C400A18BB1C71C48A1C7D6
:10062000FD59294A1C4483450900FD17B1E91CC442
:1006300063DE07062286A94526854128FD57630803
:10064000F502294535A0971700009387A72063146A
:10065000F4008044C1B7971700009387A71BE31BE2
:10066000F4FAC04445BFA2852685052255D97D559B
:10067000F2406244D2444249B249224A0561828032
:100680001CC4050963D70700184C63CBE7006389D6
:1006900045011C401387170018C02380B70059B7C5
:1006A000228626851D20E31F35F7D1B71C4013870E
:1006B000170018C029472380E70061B7970700207B
:1006C0009387C79BAA85884329BF011122CC26CADC
:1006D0004AC806CE4EC6AA842E89328401C51C4D56
:1006E00091E30929971700009387C7146319F4064B
:1006F000C0401C4C1CC48357C400A18BC9C31C48F8
:10070000BDCF1C4808409379F90F1379F90F1D8D5F
:100710005C486346F500A2852685752C2DE51C44B2
:100720000505FD171CC41C401387170018C0238043
:1007300037015C486389A7008357C400858B81CB50
:10074000A9476316F900A285268571240DEDF240B4
:1007500062444A85D2444249B24905618280971772
:1007600000009387270F6314F400804459B797174C
:1007700000009387270AE31EF4F6C0449DBFA285BC
:10078000268521203DDD7D59D9B7411197070020ED
:100790009387C78E26C2844322C44AC006C62A89CC
:1007A0002E8489C49C4C99E32685A92697170000BE
:1007B00093874708631CF402C0400317C4009317D3
:1007C0000701C18393F68700B5EE93F607019DEE0E
:1007D000A5472320F900136707042316E4007D557D
:1007E000B24022449244024941018280971700009E
:1007F000938747066314F4008044C1B7971700003D
:1008000093874701E31BF4FAC04445BF918B8DC722
:100810004C5889C9930744046384F5004A859123A1
:10082000232A04028357C4002322040093F7B7FD50
:100830002316F4001C481CC08357C40093E78700AC
:100840002316F4001C4881EF8357C40013070020CF
:1008500093F707286385E700A2854A85A52183577A
:10086000C40013F7170005C75C4823240400B3072E
:10087000F0401CCC1C480145A5F78317C40013F7B2
:10088000070839DF93E707042316F40089BF898B33
:10089000014791E3584818C4F1BF83D7C50001113F
:1008A00022CC26CA06CE4AC84EC613F78700AA84B1
:1008B0002E8471EFD841634DE000B841634AE000F7
:1008C0000145F2406244D2444249B2490561828006
:1008D00058547DD703A904009396370123A0040040
:1008E00063DD060670488357C400918B99C75C404E
:1008F0001D8E5C5899C33C401D8E5C540C50814643
:1009000026858297FD570357C400631DF500944068
:10091000F54763E8D706B70740208507B3D7D70068
:10092000858BA5C31C48232204001CC093173701E4
:1009300063D80700FD576314F5009C4091E368C835
:100940004C5823A02401ADDD930744046384F500D3
:1009500026850129232A0402A5B70C5001468546A5
:1009600026850297FD572A86E31FF5F69C40A5DFF2
:1009700075476385E70059476394E70423A0240182
:1009800081B7136707042316E4007D551DBF83A9B3
:100990000501E38709F203A905008D8B23A035012A
:1009A00033093941014791E3D84918C4E35A20F18A
:1009B0001C540C50CA864E86268582976349A00037
:1009C0008357C40093E707042316F4007DBFAA9958
:1009D0003309A940E1BF9C49B9CF011122CC06CE11
:1009E0002A8411C51C4D81E72EC62922B2459717CE
:1009F0000000938727E4639BF5004C408397C50074
:100A000095C722856244F240056141BD97170000F9
:100A1000938747E46394F5000C44CDB79717000023
:100A2000938747DFE39CF5FC4C44C9BFF240624426
:100A300001450561828001458280411122C406C6BC
:100A40002A842316B5002317C5002320050023227E
:100A50000500232405002322050623280500232A58
:100A60000500232C0500214681451305C505EFF03F
:100A70002FE997170000938767B55CD097170000A0
:100A80009387C7B71CD497170000938707BC5CD423
:100A9000971700009387C7BE00D01CD8B2402244ED
:100AA0004101828097050000938525F389AA4111B1
:100AB00026C2130680069384F5FFB384C4024AC09D
:100AC0002E8922C406C693854407A1262A8401CD17
:100AD0002320050023222501310508C4138684063E
:100AE0008145EFF0EFE12285B24022449244024971
:100AF000410182801C4DBDE3411106C622C4970707
:100B00000000938767FA1CD597F7FF1F9387475715
:100B10009C43232405042326050423280504631489
:100B2000F50085471CCD2A841D2848C0228505284C
:100B300008C422852D2048C4484001469145F53D12
:100B400008440546A545D53D48440946C945F535FF
:100B500085471CCCB24022444101828082804111F1
:100B600097F7FF1F9387C75126C284434AC006C622
:100B70009C4C22C42A8999E32685AD3F9384840442
:100B80008044DC40FD1763D607009C40B9CF844009
:100B9000C5BF0317C40039E7C177850723220406C0
:100BA0002320040023220400232404005CC42328FF
:100BB0000400232A0400232C040021468145130548
:100BC000C405EFF0EFD3232A0402232C04022324CC
:100BD0000404232604042285B2402244924402499C
:100BE000410182801304840671BF91454A85C13555
:100BF00088C051FDB1472320F9000144E9BF797154
:100C000022D44AD052CC56CA5AC85EC606D626D27C
:100C10004ECE2A8AAE8A130485040149054BFD5B3A
:100C200009ECB25022544A8592540259F249624A60
:100C3000D24A424BB24B456182800444832944002E
:100C4000FD1963D409000040E1BF83D7C400637B72
:100C5000FB008397E40063877701A6855285829A1B
:100C60003369A90093848406E1BF1971A6DAAE84C2
:100C70008395E500A2DC86DE328463DC050083D741
:100C8000C40023A0060093F7070885E793070040F8
:100C90001DA0300836C6EF003024B246E34105FE01
:100CA0007247BD67F98F7977BA9793B717009CC2DF
:100CB000F1BF930700041CC0F6506654D65401459A
:100CC0000961828083D7C500011122CC06CE26CAD5
:100CD0004AC8898B2E8489CF930774041CC01CC812
:100CE00085475CC8F2406244D24442490561828033
:100CF00074003000AA84953FA2452A892685112ACE
:100D000001ED8317C40013F7072069FFF19B93E7F8
:100D100027002316F400C9B7970700009387C7D8A8
:100D20009CD48357C40008C008C893E7070823165B
:100D3000F400A2475CC8B24791CF8315E400268532
:100D4000EF00301C01C98357C400F19B93E71700E3
:100D50002316F4008357C4003369F90023162401D5
:100D600051B7DDC583A7C5FF411122C406C626C2FF
:100D70001384C5FF63D307003E94AA84EF00501F7D
:100D800097F7FF1F938707309C4391EF23220400BE
:100D900097F7FF1F23A8872E2244B240268592444E
:100DA00041016F00101D637EF40014403307D4002E
:100DB0006396E7009843DC43369718C05CC0C9BF10
:100DC000BA87D84319C3E37DE4FE94433386D70042
:100DD000631F86001040B29694C33386D700E31D8C
:100DE000C7FA10435843B29694C3D8C375B7637516
:100DF000C400B1479CC04DB71040B306C400631691
:100E0000D70014435843B29614C058C0C0C369B742
:100E10008280011126CA93843500F19806CE22CC37
:100E20004AC84EC6A104B14763F3F404B14463E277
:100E3000B4042A89EF00D0139387818098433A84C1
:100E400039E09387C1809C4391E781454A85812F92
:100E500023A6A180A6854A859927FD5963193507E0
:100E6000B1472320F9004A85EF00B01029A0E3D054
:100E700004FCB1471CC10145F2406244D2444249DE
:100E8000B249056182801C40858F63CF0702AD4661
:100E900063F6F6001CC03E9404C031A05C406313AE
:100EA000870223A4F1804A85EF00B00C1305B4003B
:100EB0009307440061993307F5405DDF3A94898FC9
:100EC0001CC05DBF5CC3C5B72287404095BF1304FB
:100ED00035007198E30285FCB305A4404A85C1251D
:100EE000E31C35FBB5BF1C46FD171CC663DA0700C3
:100EF000184E63C5E700A9476394F5006FF0EFFC57
:100F00001C422E851387170018C22380B7008280E9
:100F1000011122CC26CA4AC84EC652C406CE2A891E
:100F2000AE893284B304D6007D5A6314940001451F
:100F300009A8834504004E864A8575370504E316E3
:100F400045FFF2406244D2444249B249224A056117
:100F50008280357122CD26CB4AC94EC706CF52C5F5
:100F600056C35AC1DEDEE2DCE6DAAA89AE843289F3
:100F7000368401C51C4D91E3B53E97170000938759
:100F8000678B639BF40C83A4490083D7C400A18BB7
:100F9000F5C79C48E5C793070002A304F102930735
:100FA000000302D22305F10222C6930B5002971AC6
:100FB0000000938A2A8C054C294B4A8483470400FD
:100FC00099C36390770FB30C2441638D0C00E686C0
:100FD0004A86A6854E852D3FFD576306F51E92561F
:100FE000E69636D283470400638F071CFD5713092A
:100FF000140002C802CE3ECA02CCA309010482D466
:101000008345090015465685B92713041900C247C0
:1010100059E913F7070109C713070002A309E104FF
:1010200013F7870009C71307B002A309E104834639
:1010300009001307A0026380E608F2474A8481464C
:1010400025460347040093051400130707FD637941
:10105000E60AB5CA3ECE85A8970700009387877F2A
:101060006395F40083A489000DB797070000938768
:10107000677AE39CF4F083A4C90001BFA6854E857E
:10108000EFF0AFF009D97D55FA406A44DA444A4995
:10109000BA492A4A9A4A0A4BF65B665CD65C0D61ED
:1010A0008280050421BF330555413315AC00C98F3B
:1010B0003EC82289B1B7324793064700184336C667
:1010C000634907023ACE034704009307E002631F17
:1010D000F704034714009307A002631BF702B2470B
:1010E0000904138747009C433AC663C107023ECAFE
:1010F00035A83307E04093E727003ACE3EC8E1B772
:10110000B387670385462E84BA9725BFFD57C5B7B9
:10111000050402CA8146814725460347040093051A
:101120001400130707FD6376E606F1F28345040019
:101130000D461705000013056574312D11CD970775
:1011400000009387A7731D8D93070004B397A70032
:10115000424505045D8D2AC88345040019461705DC
:1011600000001305E571130914002304B102E523FF
:101170003DC197F7FFFF9387E7E895E74247B247FE
:101180001377071009CF91073EC69257D2973ED2E8
:101190002DB5B387670385462E84BA97BDBF9D07DB
:1011A000E19BA107D5B7780097060000938686D605
:1011B00026860C084E8597000000E7000000FD57CA
:1011C0002A8AE314F5FC83D7C40093F70704E39C51
:1011D00007EA125555BD780097060000938686D31E
:1011E00026860C084E85012AD9BF797156CA9C49BA
:1011F000BA8A984522D426D24ECE52CC06D64AD0B0
:101200005AC85EC6AA892E84B284368A63D3E700A0
:10121000BA879CC00347340419C385079CC01C408F
:1012200093F7070281C79C4089079CC003290400EB
:1012300013796900631A0900130B9401FD5B5C4488
:101240009840998F634CF9041C408346340493F70B
:101250000702B336D000A5EB13063404D2854E85C1
:10126000829AFD576303F5041C4011469840998B00
:10127000544481446397C700B384E64063D30400B9
:1012800081441C4418486354F700998FBE94014967
:1012900069047D5B63982405014509A885465A8643
:1012A000D2854E85829A631E75017D55B2502254B7
:1012B00092540259F249624AD24A424BB24B4561BA
:1012C00082800509ADBF3307D40013060003A301D4
:1012D000C7040347540493871600A2978906A38185
:1012E000E7049DBF85462286D2854E85829AE30E0D
:1012F00065FB050945B7797122D426D24AD04ECE76
:1013000006D652CC56CA5AC8B68983C685019307F9
:1013100090063289AA842E8413863504638DF602E2
:1013200063E2D706930780056387F61863EDD7005D
:101330006380062293073004638EF60A930A24041E
:101340002301D404C9A0930730066385F60A9307E6
:101350004006E395F6FE1C40084393F60708930504
:101360004500C5C61C410CC363D807001307D00253
:10137000B307F040A301E404970600009386C6502B
:1013800029476DA8930700076383F61663E5D70224
:101390009307E006638AF6189307F006E390F6FADF
:1013A0000C401C4313F80508138547006307080623
:1013B00008C39C438DA893075007E383F6FE930769
:1013C0008007638AF61293073007E399F6F61C4309
:1013D000D04181459386470014C383AA07005685F0
:1013E0009D2E01C53305554148C05C401CC8A30172
:1013F000040471A81C43930A2404938647009C4369
:1014000014C32301F4048547D5B793F607041C41A0
:101410000CC3B9DAC207C18781BF93F5050408C3BD
:10142000C9D983D707001307F0066387E60E97062E
:101430000000938666452947A30104044C400CC470
:1014400063C5050008406D9908C099E3B28A91CD43
:10145000B28AB3F5E702FD1AB69583C5050023806D
:10146000BA00B3D5E70263FFE70AA147631EF7009E
:101470001C40858B91CB58401C4863C7E7009307FD
:101480000003A38FFAFEFD1A3306564110C84E879B
:10149000CA867000A2852685893B7D5A631E450B4E
:1014A0007D55B250225492540259F249624AD24AAE
:1014B000424B45618280A382D50497060000938643
:1014C000A63C0C40084313F805081C411105630DA8
:1014D000080208C313F7150001C793E505020CC005
:1014E0004147B9FB0C4093F5F5FD0CC0B1B79C41E9
:1014F00093E707029CC193078007A302F4049706B1
:1015000000009386A63975BF13F8050408C3E303EA
:1015100008FCC207C1837DBF970600009386C636CC
:10152000214719BFAE8735B794411C43CC4913F806
:101530000608138547006306080008C39C438CC354
:1015400001A808C393F606049C43F5DA2390B7007C
:1015500023280400B28A25BF14485686CA852685EA
:101560008299E30F45F31C40898B8DE7B2474844CD
:10157000E359F5F23E8535B785465686CA852685F8
:101580008299E30F65F1050A5C443247998FE34580
:10159000FAFEE9BF014A930A94017D5BF5B7411158
:1015A00022C42A842E8523AC018006C6EFE0BFE06A
:1015B000FD576317F500938781819C4391C31CC03D
:1015C000B240224441018280411122C42E8483957D
:1015D000E50006C64522634905007C48AA977CC8F9
:1015E000B2402244410182808357C4007D777D1739
:1015F000F98F2316F400EDB783D7C500011122CC73
:1016000026CA4AC84EC606CE93F70710AA842E846F
:101610003289B68991C78395E50089460146312212
:101620008357C4007D777D17F98F2316F400831547
:10163000E4006244F240CE864A86B2494249268599
:10164000D24405613DA8411122C42E848395E50052
:1016500006C6E128FD570357C400631BF500FD775C
:10166000FD17F98F2316F400B24022444101828015
:101670008567D98F2316F40068C8FDB78395E50008
:1016800005A8411122C42A842E85B285368623AC52
:10169000018006C6EFE0BFCEFD576317F5009387C4
:1016A00081819C4391C31CC0B2402244410182808D
:1016B000411122C42A842E8523AC018006C6CD2088
:1016C000FD576317F500938781819C4391C31CC02C
:1016D000B240224441018280411122C42A842E85D5
:1016E000B28523AC018006C6D120FD576317F500F3
:1016F000938781819C4391C31CC0B2402244410125
:101700008280411122C42A842E8523AC018006C622
:101710006520FD576317F500938781819C4391C332
:101720001CC0B240224441018280411122C42A845B
:101730002E85B285368623AC018006C66120FD5712
:101740006317F500938781819C4391C31CC0B2400D
:1017500022444101828093F5F50F2A966314C50057
:101760000145828083470500E38DB7FE0505FDB77F
:1017700082808280411122C42A842E85B2853686D9
:1017800023AC018006C6A920FD576317F500938797
:1017900081819C4391C31CC0B2402244410182809C
:1017A0009307800523ACF1807D55828093078005E7
:1017B00023ACF1807D5582809307800523ACF180B6
:1017C000014582809307800523ACF1807D5582809E
:1017D0009307800523ACF1807D5582805379737423
:1017E000656D436C6B3A25640D0A0000636869708F
:1017F00069643A253038780D0A0000004750494F97
:1018000020546F67676C6520544553540D000000E9
:1018100000000000000000000000000000000000C8
:1018200000000000000000000000000000000000B8
:1018300000000000000000000000000000000000A8
:101840000000000000000000000000000000000098
:101850000000000000000000000000000000000088
:101860000000000000000000000000000000000078
:10187000232D302B20000000686C4C006566674506
:10188000464700003031323334353637383941423B
:10189000434445460000000030313233343536379A
:0C18A00038396162636465660000000076
:1018AC0001020304050607080102030405060708E4
:1018BC00006CDC02940000200000000030180000D6
:1018CC00501800001018000000000000000000007C
:1018DC0000000000000000000000000000000000FC
:1018EC0000000000000000000000000000000000EC
:1018FC0000000000000000000000000000000000DC
:10190C0000000000000000000000000000000000CB
:10191C00000000000000000018000020180000204B
:00000001FF
